:1000000001E005BB5BBBAD9A21E004D0AD9821E0D7
:1000100001D0089534E04DE74A95F1F73A95D9F7C4
:100020002A95C1F70895C49800E00FB903D04FB1E5
:10003000C49A0895779BFECF0895C4984FB9FADF0C
:10004000C49A089508E00EBF0FE50DBF0FEF0ABB7D
:1000500004BB00E001BB0DE007BB00E005BB08E10D
:100060000BBBAD9A21E0D6DFAD9828E2D3DF00E0EC
:1000700005BB08E10BBBAD9A21E0CCDFAD9828E2CF
:10008000C9DF00E005BB08E10BBBAD9A21E0C2DF90
:10009000AD9828E2BFDF00E005BB08E10BBBAD9ADD
:1000A00021E0B8DFAD9828E2B5DF00E005BB00E352
:1000B0000BBBAD9A21E0AEDFAD9828E2ABDF00E0EC
:1000C00005BB06E00BBBAD9A21E0A4DFAD9828E2AA
:1000D000A1DF00E005BB0EE00BBBAD9A21E09ADF8B
:1000E000AD9828E297DF00E005BB01E00BBBAD9ABD
:1000F00021E090DFAD9828E28DDFC49A00E50DB9CC
:100100005EE47EDF59E47CDF5BE47ADF5FE478DF86
:02011000FFCF1F
:00000001FF
