:1000000001E005BB5BBBAD9A21E004D0AD9821E0D7
:1000100001D008953AEF3A95F1F72A95D9F7089566
:10002000C49800E00FB903D04FB1C49A0895779BEC
:10003000FECF0895C4984FB9FADFC49A089508E036
:100040000EBF0FE50DBF0FEF0ABB04BB00E001BB05
:100050000DE007BB00E005BB0EE00BBBAD9A21E055
:10006000D9DFAD9828E2D6DF00E005BB01E00BBB8D
:10007000AD9A21E0CFDFAD9828E2CCDF00E005BBF0
:1000800000E30BBBAD9A21E0C5DFAD9828E2C2DFEB
:1000900000E005BB06E00BBBAD9A21E0BBDFAD98ED
:1000A00028E2B8DFC49A00E50DB95EE4A9DF59E49F
:0C00B000A7DF5BE4A5DF5FE4A3DFFFCF68
:00000001FF
